:020000040800F2
:10000000F83A00209D010008D95C0008FF54000860
:10001000D55C0008FF090008A18F0008000000005F
:10002000000000000000000000000000D364000891
:10003000FD0C00080000000043640008D5640008BF
:10004000B7010008B7010008B7010008B7010008B0
:10005000B7010008B7010008B7010008B7010008A0
:10006000B7010008B7010008B7010008B701000890
:10007000B7010008B7010008DD0B0008490C0008B3
:10008000590C0008690C0008B7010008B701000806
:10009000098F0008B7010008B7010008B701000880
:1000A000B7010008F5650008B7010008B7010008AE
:1000B000B70100080566000815660008B7010008CA
:1000C000B7010008B7010008B7010008B701000830
:1000D000B701000841710008D5710008B701000898
:1000E000010D0008B7010008B7010008B7010008BA
:1000F00039660008B7010008B7010008B701000819
:10010000000000000000000000000000B70100082F
:10011000B7010008B701000825660008B70100080C
:10012000B7010008B7010008B7010008B7010008CF
:10013000B7010008B701000800000000000000003F
:10014000B7010008B7010008B7010008000000006F
:10015000000000000000000000000000000000009F
:100160000000000000000000B7010008198F00081F
:10017000B7010008000000000000000000000000BF
:1001800000000000B7010008DFF80CD000F074FB9D
:100190000048004791AD0008F83A00200648804723
:1001A00006480047FEE7FEE7FEE7FEE7FEE7FEE75C
:1001B000FEE7FEE7FEE7FEE7796500088901000833
:1001C0002DE9F05F0546002092469B46884606468C
:1001D000814640241BE0284641464746224600F01F
:1001E00020F853465A46C01A914110D3114618467A
:1001F000224600F08BFA2D1A67EB01084F46224683
:100200000120002100F082FA17EB00094E41201E68
:10021000A4F10104DFDC484631462A464346BDE8E6
:10022000F09F202A04DB203A21FA02F000217047D7
:1002300021FA02F3D040C2F120029140084319464E
:100240007047002800DA4042704740EA01039B07EC
:1002500003D009E008C9121F08C0042AFAD203E03B
:1002600011F8013B00F8013B521EF9D27047D2B29F
:1002700001E000F8012B491EFBD270470022F6E78F
:1002800010B513460A4604461946FFF7F0FF20460C
:1002900010BD2DE9FE4F804681EA0300C00F0C46D9
:1002A000009021F0004123F00045B8EB0200A94185
:1002B00005D24046214690461C460B46024623F096
:1002C0000040104347D0270DC7F30A00C3F30A517B
:1002D0000290401A019040286BDAC3F3130040F4F7
:1002E000801B0098924620B10023D2EB030A63EBF7
:1002F0000B0B01985946C0F14002504600F006FA37
:1003000006460D4650465946019A00F00EFA10EB8B
:1003100008006141002487EA115284EAE7731A4316
:1003200040D0009A62B3019A012A4FEA075215DCC5
:10033000001B61EB02014FF0004202EA0752CDE9D7
:100340000042001C41F5801132462B4600F045FA70
:1003500003B0BDE8F08F40462146F9E7001B61EB92
:100360000201001C41F5801300185B412018A2F522
:10037000001747EB030140EAD570B6196D4111E053
:100380006D084FEA360645EAC0754FEA0752001B72
:1003900061EB0201001C41F5801149084FEA300071
:1003A0000019514132462B4603B0BDE8F04F00F032
:1003B00005BA0098012240000023D0EB020263EB53
:1003C000E073009821464FEAE074B8EB000061EB5F
:1003D0000401E9E783F000435BE781F0004158E75F
:1003E0002DE9FE4F81EA030404F0004421F00041AE
:1003F00000944FF0000B23F0004350EA01045ED05C
:1004000052EA03045BD0C3F30A54C1F30A552C44E7
:10041000A4F2F3340194A0FB0254C1F3130141F49C
:100420008011C3F3130343F4801301FB024400FB68
:10043000034E840A970A44EA815447EA8357A4FB8F
:10044000076802958D0A05FB07854FEA932C04FB8C
:100450000C542705029D4FEA065847EA1637B5EBBC
:1004600008056EEB070C870E920E47EA811742EAE9
:100470008312A7FB0201B6EB0B0164EB00042B0D0A
:1004800043EA0C335E1844EB1C50DA465146E7FB56
:100490000201C5F313044FEA0B3343EA14534FEA46
:1004A0000432019C43EA0603A4F10C040294009C6C
:1004B000CDE900B400F091F903B0BDE8F08F002061
:1004C0000146F9E72DE9F04D81EA030404F0004B01
:1004D00021F0004514464FF0000A23F0004150EA95
:1004E000050220D054EA01021DD0C5F30A57024686
:1004F000C5F31303C1F31300C1F30A5640F480158A
:1005000043F48013A7EB0608101BD64608F2FD380B
:1005100073EB050002D308F1010801E092185B417A
:10052000B8F1000F03DA00200146BDE8F08D00208D
:100530004FF48011064684460EE0171B73EB050747
:1005400005D3121B63EB050306434CEA010C490873
:100550004FEA300092185B4150EA0107EDD152EAB0
:10056000030012D082EA040083EA0501084305D0A3
:10057000101BAB4106D20122002306E000224FF0FF
:10058000004302E06FF0010253101AEB06004CEB3F
:10059000085110EB0A0041EB0B01BDE8F04D00F0F3
:1005A0000DB90EB5C10F80EAE0700844CA070021FA
:1005B00040F233438DE80E000A460B4600F00DF979
:1005C00003B000BD0EB540F2334102910021CDE9E8
:1005D00000110A460B4600F000F903B000BD70B5EB
:1005E000C1F30A5201F000450024C1F3130140F2A7
:1005F000FF3341F480119A4201DA002070BD40F2CD
:1006000033439A42A2F2334203DC5242FFF709FE1F
:1006100000E090402C43F1D0404270BDC1F30A523B
:1006200010B5C1F3130140F2FF3341F480119A4237
:1006300001DA002010BD40F233439A42A2F2334265
:1006400003DC5242FFF7EDFD10BD904010BD00F0FD
:10065000004230F000400AD0C10D01F56071C0F3D6
:10066000160042EA0151C2084007114370470020BA
:100670000146704730B5041E71F1000404DB4FF0F1
:100680000044404264EB0101141E73F1000405DBD9
:100690001C464FF00043524263EB04038B4208BFF9
:1006A000824230BD30B5041E71F1000404DB4FF00E
:1006B0000044404264EB0101141E73F1000405DBA9
:1006C0001C464FF00043524263EB0403994208BFBB
:1006D000904230BD01F0004330B421F0004150EAB7
:1006E000010206D00A0DA2F56072C1F31301002ABF
:1006F00002DC30BC00207047440F44EAC104C10052
:10070000E01830BC00EBC25000F021B8202A04DB16
:10071000203A00FA02F1002070479140C2F1200314
:1007200020FA03F3194390407047202A06DBCB17C9
:10073000203A41FA02F043EAE07306E041FA02F39C
:10074000D040C2F120029140084319467047002969
:10075000A8BF7047401C490008BF20F00100704747
:1007600010B4B0FA80FC00FA0CF050EA010404BFA7
:1007700010BC704749B1CCF1200421FA04F411FAFD
:100780000CF118BF012121430843A3EB0C01CB1D41
:100790004FEA00614FEA102042BF002010BC7047B2
:1007A00000EBC35010440029A4BF10BC7047401C8C
:1007B000490008BF20F0010010BC704710B5141E9E
:1007C00073F1000408DA401C41F1000192185B410A
:1007D0001A4301D120F0010010BD2DE9F04D9246E1
:1007E0009B4611B1B1FA81F202E0B0FA80F22032F8
:1007F0009046FFF78BFF04460F4640EA0A0041EAA5
:100800000B0153465A46084313D0114653EA0100E0
:1008100019D0C8F140025046FFF703FD05460E46C9
:10082000504659464246FFF771FF084305D0012064
:1008300004E020463946BDE8F08D0020054346EA35
:10084000E0762C4337430A986305E40AA0EB0800DE
:100850000022FD0A44EA47540A3002D5002001462E
:10086000E9E7010510196941DDE908450019694109
:10087000BDE8F04DA2E70000064C074D06E0E06839
:1008800040F0010394E8070098471034AC42F6D3D7
:10089000FFF77EFC88E30008A8E3000870B58C1819
:1008A00010F8015B15F0070301D110F8013B2A1184
:1008B00006D110F8012B03E010F8016B01F8016B71
:1008C0005B1EF9D12B0705D40023521E0DD401F86D
:1008D000013BFAE710F8013BCB1A921C03E013F836
:1008E000015B01F8015B521EF9D5A142D8D300206B
:1008F00070BD70B504462068816801F003010129CC
:100900003AD1016811F0010F36D0816801F00D0174
:10091000012909D0206C40F010002064606C40F088
:1009200001006064012070BD816841F002018160B6
:1009300021680320086001F08FFE0546206880686A
:1009400010F0010F18D001F087FE401B02280ED9CD
:100950002068806810F0010F09D0206C40F0100072
:100960002064606C40F001006064012070BD20686C
:10097000806810F0010FE6D1002070BD70B504460C
:100980002068816801F00301012903D1016811F099
:10099000010F28D181686FF39E1149B1206C40F09E
:1009A00010002064606C40F001006064012070BDA4
:1009B000816841F00101816001F04EFE054620682A
:1009C000006810F0010F0ED101F046FE401B022816
:1009D00004D92068006810F0010F06D02068006874
:1009E00010F0010FF0D0002070BD206C40F010001E
:1009F0002064606C40F001006064012070BD00BFA5
:100A0000FEE7000010B58AB004460020059006906D
:100A10000120079000200090019004900120089090
:100A200069460D4800F0D2FF1B20099069460A482C
:100A300000F0CCFF08B100F075F90221064800F083
:100A40003BFF08B100F06EF9034801F078FB08B1F4
:100A500000F068F90AB010BD201000201CB5044653
:100A60000020104908604860886008200861002064
:100A7000C860886148616B460A4600210A4801F057
:100A80002AF808B100201CBD002004E01DF8001069
:100A90002154411CC8B2034909698142F6D801209A
:100AA000F1E70000640F00202010002030B587B06F
:100AB00004460D4600200690012000900020019081
:100AC0000290039004958DF8140006AB2246694607
:100AD000044800F003FF10B1002007B030BD0698B5
:100AE000FBE70000201000200346042B15D007DC94
:100AF0007BB1012B0ED0022B0DD0032B12D10BE0BA
:100B0000202B0BD0212B0AD0222B09D0232B09D14B
:100B100007E008E007E006E005E004E003E002E0AB
:100B200001E000E000BF00BF0020704700207047D8
:100B300010B500220449054806F09BFC044903480F
:100B400006F091FC002010BD70220020B814002097
:100B5000881E002070B505460C4629460E4806F052
:100B600082FC0D4806F05EFC0C49098820680844A8
:100B7000B0F57A7F0DD20A49084B1B882268C81845
:100B80002946FFF762FB2088044909880844034985
:100B90000880002070BD0000B81400209C000020D8
:100BA000582600202DE9F04104460D4600260A484B
:100BB000D0F8B872D7F8140210B10120BDE8F08166
:100BC0002A462146044806F054FC034806F0CCFCB3
:100BD00006463046F2E70000B814002010B515486C
:100BE00000681549884204D91448006800F4005090
:100BF00004E011488038006800F40050A8B10D48A6
:100C000000680D49884205D94FF400500B49091D71
:100C1000086004E04FF400500749803948600848F4
:100C200003F0EAFF012007490870024801F00BFBBE
:100C300010BD0000EC1300208000024000040240C0
:100C4000981200200C00002010B5024801F0FBFAB9
:100C500010BD0000A813002010B5024801F0F3FAFF
:100C600010BD00007414002010B5024801F0EBFA2A
:100C700010BD0000301400200C4B01680C4A994252
:100C800009D20C4B1944A2FB012109098900016416
:100C90000949C1637047094B1944A2FB01210909A5
:100CA000890001640649C1637047000008040240DE
:100CB000CDCCCCCCF8FFFDBF00000240F8FBFDBF5F
:100CC0000004024010B490F840C0012404FA0CFC67
:100CD000C46BC4F804C0D0F800C0CCF8043043683A
:100CE000102B05D0036899600068C26010BC704783
:100CF00003689A600068C16010BC704770470000CC
:100D000010B54FF48061064801F090FC044621467E
:100D100001200AF0F5FF4FF4806001F075FB10BD73
:100D2000000400487047000070B50A480468001DC0
:100D30000568001D0668344454B10822064920465F
:100D400004F0DFFB042204491031284604F0D9FBEB
:100D500070BD0000ACF7FF1F8200002070B495B09A
:100D60004FF0000C0268494E0025B2F1A04F05D0AB
:100D7000B24205D14FF0A04300930CE000960AE088
:100D8000434B444C9A4201D1009404E0A24201D169
:100D9000009300E00095009B5BB190F83C30012B84
:100DA0000BD0012380F83C30936813F0040F08D077
:100DB0000CE015B0012070BC704715B0022070BC6B
:100DC0007047009B9B6813F0040F0BD0016C41F03F
:100DD000200101644FF0010C80F83C5015B06046D2
:100DE00070BC7047B2F1A04F01D0B24201D12A4A83
:100DF00000E02A4A0B684BB3936890F8304023F424
:100E0000604343EA44334C682343936003689C681F
:100E100004F00304012C03D11B6813F0010FDBD194
:100E2000009B9B6803F00303012B04D1009B1B680C
:100E300013F0010FD0D10B6889681943936823F030
:100E40001F0323F4706319439160C5E7916821F48F
:100E50006041916001688B6803F00303012B03D1AB
:100E6000096811F0010FB7D10099896801F00301F9
:100E7000012904D10099096811F0010FACD19168E2
:100E800021F01F0121F470619160A5E7000100507D
:100E900000040050000500500003005000070050FF
:100EA0002DE9F00196B000240025009590F83C2033
:100EB000012A13D0012680F83C600268936813F081
:100EC000040F10D0016C41F020010164012480F86E
:100ED0003C5016B02046BDE8F001704716B0022025
:100EE000BDE8F00170474B684FF01F0C052B0ED288
:100EF000176B03EB43035B000CFA03FC27EA0C0CB3
:100F00000F6807FA03F34CEA0303136332E00A2B7A
:100F10000FD2576B5B1F03EB43035B000CFA03FC20
:100F200027EA0C0C0F6807FA03F34CEA0303536338
:100F300020E00F2B0FD2976B0A3B03EB43035B00C0
:100F40000CFA03FC27EA0C0C0F6807FA03F34CEACF
:100F5000030393630EE0D76B0F3B03EB43035B008C
:100F60000CFA03FC27EA0C0C0F6807FA03F34CEAAF
:100F70000303D363026893684FF0070713F00C0F65
:100F80006FD10B680A2B10D3D2F818C00A3B03EBC1
:100F9000430307FA03F82CEA080CD1F8088008FA92
:100FA00003F34CEA030393610EE0D2F814C003EBA1
:100FB000430307FA03F82CEA080CD1F8088008FA72
:100FC00003F34CEA0303536102684B69D2F80CC087
:100FD000CCF3C10C4FEA4C0C03FA0CF3D1F810C05F
:100FE000DFF8A082BCF1010F42D0BCF1020F4DD05E
:100FF000BCF1030F58D0BCF1040F63D0136E91F80D
:1010000000C003F0F843B3EB8C6F03D1136E23F0F1
:10101000004313660268536E91F800C003F0F84372
:10102000B3EB8C6F03D1536E23F000435366026819
:10103000936E91F800C003F0F843B3EB8C6F03D1CB
:10104000936E23F0004393660268D36E91F800C05C
:1010500003F0F843B3EB8C6F03D1D36E23F000435E
:10106000D3660268936803F00303012B3DD137E098
:10107000D2F860C00CEA080C91F8008043EA88635B
:101080004CEA030343F000431366EAE7D2F864C076
:101090000CEA080C91F8008043EA88634CEA0303E9
:1010A00043F000435366DCE7D2F868C00CEA080C52
:1010B00091F8008043EA88634CEA030343F000435D
:1010C0009366CEE7D2F86CC00CEA080C91F8008069
:1010D00043EA88634CEA030343F00043D366C0E766
:1010E000136813F0010F7FF4F2AECB68012B0AD026
:1010F000D2F8B03091F800C006FA0CFC23EA0C03D9
:10110000C2F8B0302DE0D2F8B03091F800C006FA45
:101110000CFC43EA0C03C2F8B0300A680A2A10D368
:101120000368D3F818C0093A02EB420207FA02F644
:101130002CEA060C8E6806FA02F24CEA02029A6168
:101140000FE00368D3F814C0521C02EB420207FA06
:1011500002F62CEA060C8E6806FA02F24CEA02024B
:101160005A610368DFF820C1B3F1A04F01D0634595
:1011700001D1464A00E0464A0968102903D1966821
:1011800016F4000F0DD0112903D1966816F0807F58
:1011900007D012297FF49BAE966816F4800F7FF477
:1011A00096AEB3F1A04F06D0634507D14FF0A04CE7
:1011B000CDF804C00FE0CDF804C00CE0DFF8D4C0D7
:1011C000354E634501D1019605E0B34202D1CDF819
:1011D00004C000E00195D3F808C00CF0030CBCF18A
:1011E000010F04D1D3F800C01CF0010F14D1DDF8B9
:1011F00004C0BCF1000F15D0DDF804C0DCF808C055
:101200000CF0030CBCF1010F0CD1DDF804C0DCF8CC
:1012100000C01CF0010F05D0016C41F020010164F9
:10122000012454E6102902D1B3F1A04F02D01129B4
:1012300018D01AE0916841F4000191601749184AEA
:101240000968B1FBF2F101EB8101490000910099BD
:1012500000293FF43CAE0099491E009100990029F5
:10126000F9D134E6B3F1A04F07D012297FF42FAEA5
:10127000916841F48001916029E6916841F08071A4
:10128000916024E600F0FF8300010050000300504D
:10129000000700500004005000050050B00000207E
:1012A00040420F000068006C70470000F0B597B036
:1012B00004460025002700260196002C04D0206C4F
:1012C00010F0100F03D050E017B00120F0BD206CDB
:1012D000002836D16664E664A66484F83C60204643
:1012E00000F01EF92068806810F0805F29D1204648
:1012F000FFF7FFFA0546206C10F0100F21D105BB57
:10130000206C20F4885040F002002064206881683E
:1013100021F0405181602068816841F080518160F6
:10132000774878490068B0FBF1F000EB800040009E
:101330000190019828B10198401E01900198002861
:10134000F9D12068816811F0805F03D0806810F0C7
:10135000005F0AD0206C20F0020040F010002064F2
:10136000606C40F0010060640125206C10F0100FEB
:1013700005D125B92068816811F0040F09D0206CCF
:1013800020F0020040F010002064012517B028462C
:10139000F0BD216C21F4807141F0020121645A4AB0
:1013A000B0F1A04F01D0904201D1584900E0584916
:1013B000584BDFF864C1B0F1A04F04D0904204D183
:1013C0001A0502920BE0029209E0604501D10293F6
:1013D00005E0984202D1CDF808C000E0029682688C
:1013E00002F00302012A03D1006810F0010F12D1AC
:1013F000029850B10298806800F00300012804D1DF
:101400000298006810F0010F05D18868626820F426
:10141000403010438860A168E06840EA0102606BD8
:10142000012802D04FF4805000E00020617E40EAA5
:1014300041301043384394F82020012A0AD1D9B111
:10144000216C21F0020141F020012164616C41F026
:1014500001016164A16A012920D02268624501D09E
:101460009A4218D1B1F5307F0DD0B1F5807F0DD003
:10147000B1F5E07F0DD00EE0A18C491E40EA41405D
:1014800040F48030E6E74FF4E07104E04FF430714F
:1014900001E04FF480710843E16A084321688A68DB
:1014A00012F00C0F0CD1CA6822F0020222F4804222
:1014B000CA60217E94F83020890341EA4201084342
:1014C0002168CA68154B1A401043C860206901287A
:1014D0000CD02068016B21F00F0101636664206C61
:1014E00020F0020040F0010020644FE72068016B0B
:1014F000E26921F00F01521E11430163EEE7000083
:10150000B000002040420F000001005000030050D6
:1015100000070050000500500004005007C0F0FF15
:1015200010B586B00446142101A8FEF7A7FE206876
:10153000B0F1A04F25D100BF2748406940F080504E
:10154000254948610846406900F08050009000BF7E
:1015500000BF00BF0846406940F48000486108466B
:10156000406900F48000009000BF00BF102001908F
:10157000032002900020039001A9184800F050FFBA
:1015800027E017492068884223D100BF12484069EC
:1015900040F00050104948610846406900F0005092
:1015A000009000BF00BF00BF0846406940F48020A3
:1015B00048610846406900F48020009000BF00BFE9
:1015C0000320019002900020039001A9054800F03B
:1015D00027FF06B010BD00000010024000140048B4
:1015E00000040050000400482DE9F04704460E4670
:1015F00061694F4A20684FF00009082906D0B0F110
:10160000A04F01D0904203D14A4902E008251FE0D3
:1016100049498B6813F01F0F0CD0896811F4404FB3
:1016200015D0206C40F02000206484F83C9001200C
:10163000BDE8F087C16811F0010F08D0206C40F0C0
:101640002000206484F83C900120BDE8F0870C2540
:10165000B0F1A04F01D0904204D13849096801F09F
:101660001F0103E03649096801F01F0129B1B0F1FB
:10167000A04F02D03349884201D1C76804E09042AC
:1016800001D14FF0A041CF6800F0E6FF804620680E
:10169000006828421AD1B6F1FF3F13D02EB100F0F6
:1016A000DBFFA0EB0800B0420CD92068006828429C
:1016B00008D1206C40F00400206484F83C900320A2
:1016C000BDE8F087206800682842E4D0206C40F430
:1016D000007020642068C16811F4406F12D117F4C3
:1016E000005F0FD1016811F0080F0BD0816811F075
:1016F000040F0BD0216C41F020012164616C41F09A
:101700000101616417F4804F0DD00DE0216C21F4CC
:1017100080712164216C11F4805FF3D1216C41F060
:1017200001012164EEE705600020BDE8F0870000BC
:101730000001005000030050000700500803005053
:1017400008070050000400502DE9F04104462068CD
:10175000806810F0040F03D002252846BDE8F08110
:1017600094F83C0001280BD0012084F83C0020466E
:10177000FFF704F9054600272DB184F83C70ECE72B
:101780000220BDE8F081206C20F0010020F46060B0
:1017900040F4807020642068434ADFF810C14FF0A5
:1017A000A043B0F1A04F01D0904204D1D3F8081368
:1017B00001F01F0103E0DCF8001001F01F013C4EB6
:1017C00021B1B0F1A04F01D0B0420ED1216C21F473
:1017D00080112164C16811F0007F1BD0216C21F4BD
:1017E000005141F48051216414E0216C41F48011D6
:1017F0002164904203D1D96801F0007103E02D49C2
:10180000096801F0007129B1216C21F4005141F403
:1018100080512164216C11F4805F04D0616C21F04F
:101820000601616400E0676484F83C701C2101607B
:101830002068B0F1A04F01D0904204D1D3F8081332
:1018400001F01F0103E0DCF8001001F01F0129B3D3
:10185000B0F1A04F01D0904204D1D3F8081301F0A9
:101860001F0103E0DCF8001001F01F01052915D06D
:10187000B0F1A04F01D0904204D1D3F8081301F089
:101880001F0103E0DCF8001001F01F01092905D059
:10189000B0F1A04F02D0B0427FF45FAF816841F059
:1018A0000401816059E70000000100500807005062
:1018B000000400500C04005090F82020012A07D0AA
:1018C000022A05D0416A41F480214162012070471B
:1018D00000684269114341610020704770B490F87C
:1018E0002040D0F800C0DCF808C0012C08D0022C41
:1018F00006D0416A41F48021416270BC01207047EA
:101900000CF080640CF000652C4302D11CF0805F69
:1019100055D0CCF3016C012404FA0CF41C608B68E4
:101920004FF4C0749BB1CD6804EB0C162B434D688B
:1019300043EAC5030568AB514FF4C273066803EB75
:101940000C130D69F550097D012909D00DE00D88B2
:10195000CB6804EB0C1643EA45530568AB51EBE743
:101960000168CD5845F48075CD501179D3795579FA
:1019700041EA036193791B0443EA052319434FF4B9
:10198000C675036805EB0C1559511178D37841EAF7
:101990000361937852781B0443EA022211434FF407
:1019A000C473026803EB0C13D150016804EB0C10F4
:1019B0000A5842F001020A5070BC00207047416A88
:1019C00041F40011416270BC01207047026890F838
:1019D0002030012B07D0022B05D0416A41F4802131
:1019E000416201207047D2F8000240F00100C2F8C5
:1019F0000002087D012300F01F0003FA00F0D2F876
:101A00001C328343C2F81C32CB69D3B9D2F80C32F2
:101A10008343C2F80C32B1F80CC04B686CF31F431F
:101A2000D1F814C002EBCC0CCCF84032B1F808C0AD
:101A30000B686CF31F43D1F814C002EBCC0CCCF84C
:101A40004432CB69012B1AD1D2F80C320343C2F8CD
:101A50000C32B1F800C04B686CF31F43D1F814C0CE
:101A600002EBCC0CCCF84032B1F808C0CB686CF378
:101A70001F43D1F814C002EBCC0CCCF844328B6974
:101A80007BB1D2F804320343C2F804320B6973B15C
:101A9000D2F814320343C2F81432096A01290CD077
:101AA00010E0D2F804328343C2F80432EEE7D2F8F1
:101AB00014328343C2F81432EFE7D2F81C12084301
:101AC000C2F81C02D2F8000220F00100C2F80002A5
:101AD00000207047704730B490F820C0BCF1010F6F
:101AE00009D0BCF1020F06D0416A41F48021416265
:101AF00030BC0120704739B1D0F800C0DCF810C00C
:101B00001CF0030F33D006E0D0F800C0DCF80CC0A6
:101B10001CF0030F24D04FF4D87C04680CEB011C9C
:101B200054F80C4004F0040494603CB3046854F886
:101B30000C40E4085460046854F80CC00CF0020C2B
:101B4000C2F80CC04FF4DA7C04680CEB011C54F8AA
:101B50000C5005F00F05082D16D30824146118E069
:101B6000416A41F40011416230BC01207047416A72
:101B700041F40011416230BC01207047046854F800
:101B80000C40640D1460D6E754F80C4004F00F04C8
:101B90001461046854F80C40C4F307249461046889
:101BA00054F80CC04FEA1C4CC2F814C04FF4DC725D
:101BB000D0F800C002EB01125CF802C083F800C04C
:101BC000D0F800C05CF802C04FEA1C2C83F801C0BA
:101BD000D0F800C05CF802C04FEA1C4C83F802C089
:101BE000D0F800C05CF80220120EDA704FF4DE72FA
:101BF000D0F800C002EB01125CF802C083F804C008
:101C0000D0F800C05CF802C04FEA1C2C83F805C075
:101C1000D0F800C05CF802C04FEA1C4C83F806C044
:101C2000D0F800C05CF80220120EDA7139B10068F9
:101C3000016941F02001016130BC0020704700685B
:101C4000C16841F02001C160F6E72DE9F05F05466B
:101C5000002428684669D0F804908768D0F80CA062
:101C6000D0F810B0D0F8188016F0010F54D017F04B
:101C7000010F17D00121816017F0020F03D0284611
:101C800000F090FA0EE017F0040F02D04FF4006459
:101C900008E017F0080F02D04FF4805402E0284605
:101CA00000F07FFA17F4807F19D029684FF4807014
:101CB000886017F4007F03D0284600F075FA0EE024
:101CC00017F4806F02D044F4005408E017F4006F5A
:101CD00002D044F4804402E0284600F064FA17F48D
:101CE000803F19D029684FF48030886017F4003F96
:101CF00003D0284600F05AFA0EE017F4802F02D0E5
:101D000044F4004408E017F4002F02D044F4803477
:101D100002E0284600F049FA16F0080F07D01AF042
:101D2000100F04D044F4007429681020C86016F025
:101D3000040F4FF0080707D01AF0080F04D02868E6
:101D4000C760284600F096F916F0020F07D0286801
:101D5000C06810F0030F02D0284600F08DF916F08D
:101D6000400F07D01BF0100F04D044F480642968A2
:101D70001020086116F0200F07D01BF0080F04D0C8
:101D800028680761284600F0D7F916F0100F07D031
:101D90002868006910F0030F02D0284600F0CDF942
:101DA00016F4003F08D019F0100F05D02968102054
:101DB0004860284600F0C2F916F4803F07D019F0B9
:101DC000080F04D028684760284600F0F0F916F4A0
:101DD000004F4AD019F0040F44D016F4807F04D08D
:101DE00018F0010F01D044F0010416F4007F04D074
:101DF00018F0020F01D044F0020416F4806F04D0F2
:101E000018F0040F01D044F0040416F4006F29D038
:101E100018F0700F26D008F07000402815D006DCAE
:101E2000102809D020280AD0302816D10AE05028DE
:101E30000ED0602811D10EE044F008040DE044F00B
:101E400010040AE044F0200407E044F0400404E0F9
:101E500044F0800401E044F480742868816921F032
:101E600070018161296804204860002C05D0686AEF
:101E7000204368622846FFF72DFEBDE8F09F70B54D
:101E80000446002C03D094F8200010B104E0012097
:101E900070BD204600F0A8F82068016841F00101FB
:101EA000016000F0D9FB0546206840684FF0050648
:101EB00010F0010F11D100F0CFFB401B0A2807D909
:101EC000606A40F40030606284F82060012070BDD8
:101ED0002068406810F0010FEDD02068016821F003
:101EE0000201016000F0B8FB05462068406810F070
:101EF000020F11D000F0B0FB401B0A2807D9606A1E
:101F000040F40030606284F82060012070BD2068D9
:101F1000406810F0020FEDD1207E01283FD02068EC
:101F2000016821F080010160607E01283DD02068B9
:101F3000016821F040010160A07E01283BD02068AB
:101F4000016821F020010160E07E012839D020687D
:101F5000016841F010010160207F012837D020681E
:101F6000016821F008010160607F012835D02068F8
:101F7000016821F004010160E168A068626908431A
:101F80002169114308436168491E08432168C861FB
:101F900000206062012084F82000002070BD2068CD
:101FA000016841F080010160BEE72068016841F0EE
:101FB00040010160C0E72068016841F02001016034
:101FC000C2E72068016821F010010160C4E72068C1
:101FD000016841F008010160C6E72068016841F02E
:101FE00004010160C8E7000010B586B00446142162
:101FF00001A8FEF743F91C492068884231D100BF8F
:102000001A48C06940F000701849C8610846C069A4
:1020100000F00070009000BF00BF00BF084640699C
:1020200040F4802048610846406900F48020009018
:1020300000BF00BF4FF440700190022002900020CA
:102040000390032004900920059001A9084800F09E
:10205000E7F900221146142000F080FB142000F064
:102060006FFB06B010BD000000640040001002408D
:10207000000400487047000070B5054618492868FC
:1020800088422BD11748FEF7E9FC012809D016A099
:1020900006F088FF1CA006F085FF1BA006F082FF5B
:1020A0001CE01A4801681AA006F07CFF1BA006F08D
:1020B00079FF002406E00B48015D1EA006F072FFC8
:1020C000601CC4B2082CF6DB0FA006F06BFF0EA05C
:1020D00006F068FF08210348FEF7E8FC70BD000029
:1020E00000640040240000204D4355205265636584
:1020F000697665642043414E2044617461204552F5
:10210000524F5221212100000A0D0000640F0020CF
:1021100053746449643A25640D0A00004D43552008
:1021200052656365697665642043414E204461745D
:10213000613A20002564200070477047704770B5F1
:10214000044694F82000012805D0606A40F400207D
:102150006062012070BD022084F8200020680168C0
:1021600021F00101016000F077FA0546206840681F
:1021700010F0010F12D000F06FFA401B0A2808D9A6
:10218000606A40F400306062052084F8200001207D
:1021900070BD2068406810F0010FECD10020606233
:1021A00070BD704770477047704770477047704701
:1021B00090F821100022022905D00421816380F8C3
:1021C00020200120704701680B6823F00E030B608C
:1021D00001680B6823F001030B6090F84030D0F8E1
:1021E0003CC0012101FA03F3CCF8043080F821103F
:1021F00080F820200020704710B5002490F82110AE
:10220000022903D004218163012418E001680A68CF
:1022100022F00E020A6001680A6822F001020A60D8
:1022200090F84020C36B012101FA02F25A6080F855
:102230002110002180F82010416B01B18847204611
:1022400010BD806B7047F0B4C16B0A6801680B6801
:10225000D0F840C0042404FA0CF5154215D013F050
:10226000040F12D00A6812F0200F03D10A6822F07E
:1022700004020A6090F84010C26B04FA01F1516048
:10228000C16A002941D0F0BC0847022505FA0CF4C8
:1022900014424FF000064FF0010419D013F0020F62
:1022A00016D00A6812F0200F05D10A6822F00A023F
:1022B0000A6080F8214090F84010C26B05FA01F1E5
:1022C000516080F82060816A00291ED0F0BC084768
:1022D000082505FA0CFC1CEA020F16D013F0080FB3
:1022E00013D00A6822F00E020A6090F84010C26B08
:1022F00004FA01F15160846380F8214080F8206085
:10230000016B002901D0F0BC0847F0BC704710B544
:102310000446002C22D0022084F8210020680168A5
:102320006FF30D11A3686268D4F810C01A43E36814
:1023300043EA0C031A4363691A43A3691A43E36926
:102340001A43114301602046FEF796FC0020A0636B
:10235000012184F8211084F8200010BD012010BD57
:1023600070B50446002594F8200001280DD0012006
:1023700084F8200094F821C00020BCF1010F06D0A1
:1023800084F820000225284670BD022070BD4FF061
:10239000020C84F821C0A0632068D0F800C02CF0A3
:1023A000010CC0F800C02046FEF78CFCE06A28B1A2
:1023B0002068016841F00E01016009E020680168B1
:1023C00041F00A0101602068016821F00401016008
:1023D0002068016841F001010160D4E770B504464E
:1023E00000F03AF90546B4F1FF3F02D00448007806
:1023F000044400F031F9401BA042FAD370BD000044
:10240000100200207047000010B504490A6802421B
:1024100002D00860FFF7F6FF10BD00001404014071
:102420002DE9F84F00220B68002B7CD0DFF8F0A1DB
:10243000DFF8E8914FF0010E03274FF00F080AF183
:10244000040B0B680EFA02F42340002B6CD091F8B9
:1024500004C00CF0030CBCF1010F02D0BCF1020F60
:1024600018D185684FEA420C07FA0CF6B543CE68DE
:1024700006FA0CFC4CEA050CC0F808C0D0F804C001
:102480002CEA040C0C79C4F30014944044EA0C0CBC
:10249000C0F804C0D1F804C037EA0C0C0CD0C468F2
:1024A0004FEA420C07FA0CF5AC438D6805FA0CFCB8
:1024B0004CEA040CC0F80CC091F804C00CF0030CFA
:1024C000BCF1020F12D14FEAD20C00EB8C04256A4A
:1024D0004FEA427C4FEADC6C08FA0CF6B5430E6911
:1024E00006FA0CFC4CEA050CC4F820C004684FEA5C
:1024F000420C07FA0CF5AC430D7905F0030505FA1B
:102500000CFC4CEA040CC0F800C0D1F804C01CF468
:10251000403F6DD0D9F818C04CF0010CC9F818C074
:10252000D9F818C001E068E062E00CF0010CCDF8C9
:1025300000C022F0030C0CF1804505F58035D5F87C
:1025400008C09407240F08FA04F62CEA0606B0F136
:10255000904F57D0A0F1904CBCF5806C4FD0A0F1BB
:10256000904CBCF5006C50D0A0F1904CBCF5406C88
:102570004ED0A0F1904CBCF5805C4CD04FF0050CD7
:102580000CFA04FC4CEA060CC5F808C0DAF800C0E6
:102590002CEA030C4C6814F4801F01D04CEA030CA5
:1025A000CAF800C0DBF800C02CEA030C4C6814F435
:1025B000001F01D04CEA030CCBF800C0194CD4F832
:1025C00000C02CEA030C4D6815F4003F01D04CEA22
:1025D000030CC4F800C0144CD4F800C02CEA030C5F
:1025E0004D6815F4803F01D04CEA030CC4F800C0DC
:1025F000521C0B68D3407FF424AFBDE8F88F4FF036
:10260000010CBDE74FF0000CBAE74FF0020CB7E742
:102610004FF0030CB4E74FF0040CB1E70010024098
:10262000080401400404014000040140006908421C
:1026300001D00120704700207047426921EA02035F
:10264000114043EA014181617047002A01D0816154
:102650007047816270470000014880687047000041
:10266000100200200148006870470000ACF7FF1F0F
:102670000148006870470000B0F7FF1F014800687C
:1026800070470000B4F7FF1F0248816802781144C8
:10269000816070471002002010B50748016841F0C2
:1026A00010010160032000F08DF8002000F006F812
:1026B00000F026F8002010BD0020024070B504464E
:1026C0000D4D4FF47A712878B1FBF0F00B49096891
:1026D000B1FBF0F001F0C2FC08B1012070BD102C7C
:1026E00007D200222146501E00F038F86C6000200E
:1026F00070BD012070BD000010020020B00000205D
:1027000008B500BF0D48806940F001000B498861A1
:102710000846806900F00100009000BF00BF00BFC4
:102720000846C06940F08050C8610846C06900F0A2
:102730008050009000BF00BF08BD000000100240A4
:1027400000280ADB00F01F01012202FA01F1400912
:10275000800000F1E020C0F80011704710B4184B61
:102760001B68C3F30223C3F1070CBCF1040F01D9AA
:102770004FF0040C1C1D072C01D2002300E0DB1ECF
:10278000012404FA0CFCACF1010C0CEA01019940A3
:1027900004FA03F35B1E1A401143002806DB00F124
:1027A000E020090180F8001410BC704700F00F0011
:1027B00000F1E020090180F8141D10BC70470000F2
:1027C0000CED00E000F00700064A11684FF6FF0329
:1027D000194041EA002040F0FD7040F08060106038
:1027E000704700000CED00E0BFF34F8F0548016813
:1027F000054A01F4E06111430160BFF34F8F00BF50
:10280000FDE700000CED00E00400FA0511F0800F78
:1028100007D001F0070101EB810100EBC100283076
:1028200005E001EB810100EBC10000F5B47099B245
:1028300032B1012202730181190C418100207047DD
:1028400000220273C180F9E7704770B504460D4657
:1028500005EB850304F1280101EBC3014A69294610
:10286000D4F8E80205F010F970BD70B504460D46C5
:1028700005EB850304F5B47101EBC3014A692946F0
:10288000D4F8E80205F06BF970BD70B5044611F09C
:10289000800F01F0070000EB800104EBC1014FF055
:1028A00001024FF0000502D028314A7002E001F524
:1028B000B4714D70087094F8A802012808D084F80B
:1028C000A822206805F0C8FE84F8A852002070BD38
:1028D000022070BD70B5044601F00F00626890429E
:1028E00001D9012070BD11F0800F01F0070000EB4D
:1028F000800104EBC1014FF001024FF0000502D04E
:1029000028314A7002E001F5B4714D708D70087085
:1029100094F8A802012808D084F8A822206805F0BD
:1029200073FF84F8A852002070BD022070BD2DE90D
:10293000F0470B78D1F818C0046812F4804F4FF0BC
:10294000000848F2800748F2C0054FF480663DD089
:10295000B4F850904FF0020A0AEBC30AD14406EBD8
:102960004906A45BC4F30904A44504D3ACEB040CEE
:10297000C1F818C001E0C1F81880D1F818C0BCF146
:10298000000F0CD1D0F800C03CF8236026F0700690
:1029900026F4804686F400563E432CF8236012F05D
:1029A000400F0BD00B78026832F823C02CF0700C6B
:1029B0002CF4E04C4CEA050C22F823C0ECB30A8955
:1029C00049690068234606F0B2FA3EE0B4F8509038
:1029D0004FF0060A0AEBC30AD14406EB4906A45B92
:1029E000C4F30904A44504D3ACEB040CC1F818C02B
:1029F00001E0C1F81880D1F818C0BCF1000F0CD16B
:102A0000D0F800C03CF8236026F0700626F480461B
:102A100086F400563E432CF8236012F0400F0BD191
:102A20000B78026832F823C02CF0700C2CF4E04CC8
:102A30004CEA050C22F823C000E006E02CB14A89DC
:102A400049690068234606F072FA2046BDE8F0871F
:102A50002DE9F05F05460C4616462178A2692868E4
:102A600016F0400F4CF280074FF400434FF4806E95
:102A70004FF002094FF006084FF0000C00F0DE8026
:102A8000B0F850B009EBC10AD3440EEB4B0B30F851
:102A90000B00C0F30900824202D9121AA26101E0C0
:102AA000C4F818C0A26992B116F4804F09D02A6800
:102AB00032F8216026F0700626F4E0463E4322F804
:102AC000216094F82410012957D000F094B960785F
:102AD00010B1012811D018E02868B0F8501008444F
:102AE00000EB4A0000F580600188C1F30901018014
:102AF000018841F40041018007E02868B0F85010D7
:102B0000084400EB4A00A0F800C42868617811B1BD
:102B1000012913D01CE0B0F850100844217808EBCC
:102B2000C10100EB410000F580600188C1F309019B
:102B30000180018841F40041018009E0B0F85010A3
:102B40000844217808EBC10100EB4100A0F800C463
:102B500021782846FFF779FE16F4804F00F04B816C
:102B60002178286830F8212022F0700222F4E04217
:102B70003A4320F8212000F03EB9616901446161C7
:102B8000E1690144E1612269216A914203D310465F
:102B9000091A216205E049B184F824C00846C4F846
:102BA00020C0617829B1012936D040E084F824C0E2
:102BB000F7E72968B1F850201144227809EBC202E6
:102BC00001EB420101F580610A88C2F309020A8023
:102BD0003E280CD9420910F01F0F00D1521EB1F847
:102BE00000C043EA82224CEA02020A801FE070B170
:102BF000420810F0010F00D0521CB1F800C04FF68F
:102C0000FF7303EA82224CEA02020A800FE00A887C
:102C100042F400420A800AE02968B1F850201144C9
:102C2000227809EBC20201EB4201A1F8000483B251
:102C300022896169286806F09FF9DCE0B0F850A0AD
:102C400008EBC10BDA440EEB4A0A30F80A00C0F375
:102C50000900824202D3121AA26101E0C4F818C02E
:102C6000A2691AB116F4804F58D061E0607810B1B3
:102C7000012813D01CE02868B0F85020104409EB5C
:102C8000C10100EB410000F580600188C1F309013A
:102C90000180018841F40041018009E02868B0F812
:102CA0005020104409EBC10100EB4100A0F800C422
:102CB0002868617811B1012913D01CE0B0F85010D8
:102CC0000844217808EBC10100EB410000F5806069
:102CD0000188C1F309010180018841F400410180AC
:102CE00009E0B0F850100844217808EBC10100EB6E
:102CF0004100A0F800C421782846FFF7A6FD16F48D
:102D0000804F78D12178286830F8212022F0700295
:102D100022F4E0423A4320F821206CE02A6832F89D
:102D2000216026F0700626F4E0463E4322F821603A
:102D300094F8241001295ED1616901446161E1695F
:102D40000144E1612269216A914203D31046091AC4
:102D5000216205E051B10846C4F820C084F824C0BF
:102D6000296862782AB1012A35D03EE084F824C06F
:102D7000F6E7B1F850201144227808EBC20201EBCB
:102D8000420101F580610A88C2F309020A803E28E7
:102D90000CD9420910F01F0F00D1521EB1F800C02B
:102DA00043EA82224CEA02020A801EE070B1420825
:102DB00010F0010F00D0521CB1F800C04FF6FF73A5
:102DC00003EA82224CEA02020A800EE00A8842F4F8
:102DD00000420A8009E0B1F850201144227808EB43
:102DE000C20201EB4201A1F8000483B26289616969
:102DF000286806F0C1F82178286830F8212022F4EC
:102E0000415222F4804282F0100282F0200248F205
:102E100080031A4320F821200020BDE8F09F01F034
:102E2000070101EB810100EBC100D0F8840170477C
:102E300070B5044611F0800F01F0070000EB80012F
:102E400004EBC1014FF0010C4FF0000503D0283115
:102E500081F801C002E001F5B4714D7008700A619B
:102E6000CB70022B00D10D7194F8A802012808D074
:102E700084F8A8C2206805F055FA284684F8A852BC
:102E800070BD022070BD10B501F0070C0CEB8C0179
:102E900000EBC10101F5B4714A618B610022CA6186
:102EA0004A7081F800C0006805F01AFD002010BDCE
:102EB00070B5044601F007006268904201D9012014
:102EC00070BD11F0800F4FF000054FF0010206D0E9
:102ED00000EB800104EBC10128314A7006E001EBF0
:102EE000810104EBC10101F5B4714D708A70087065
:102EF00094F8A802012808D084F8A822206805F0D8
:102F0000D0FC84F8A852002070BD022070BD10B51E
:102F100001F0070C0CEB8C0100EBC10128314A6178
:102F20008B61012281F824200B620023CB614A705F
:102F300081F800C0006805F0D3FC002010BD10B57A
:102F40000446206805F0F0FF10F4004F04D020463E
:102F5000BDE8104002F0C1BE10F4806F0FD02068B1
:102F6000B0F8441021F48061A0F84410204600F02D
:102F700015F92046BDE81040002100F02FB910F4EB
:102F8000804F07D02068B0F8441021F48041A0F8A9
:102F9000441010BD10F4005F07D02068B0F8441052
:102FA00021F40051A0F8441010BD10F4805F18D037
:102FB0002068B0F8401021F00401A0F8401020680B
:102FC000B0F8401021F00801A0F84010204600F0B1
:102FD000F7F82068B0F8441021F48051A0F84410AC
:102FE00010BD10F4006F18D02068B0F8401041F008
:102FF0000801A0F840102068B0F8441021F40061E6
:10300000A0F844102068B0F8401041F00401A0F886
:103010004010204600F018F910BD10F4007F0AD0CF
:103020002068B0F8441021F40071A0F84410204644
:1030300000F0CDF810BD10F4807FFBD02068B0F810
:10304000441021F48071A0F8441010BD70B586B012
:103050000446002C04D094F8A902002518B107E01A
:1030600006B0012070BD84F8A852204600F048F850
:10307000032084F8A902206805F0BEFB00216068E7
:103080000126002811D901EB810004EBC00080F873
:10309000296080F8281080F82B508563C56305648B
:1030A000481CC1B260688842EDD8002160680028E1
:1030B00014D901EB810004EBC00080F8695180F85D
:1030C000681180F86B51C0F87851C0F87C51C0F895
:1030D0008051481CC1B260688842EAD804F11000EF
:1030E00090E80F108DE80F1094E80F0005F078FBC2
:1030F00084F8245084F8A96206B0002070BD000056
:1031000010B586B00446142101A8FDF7B7F8204990
:103110002068884239D100BF1E48406940F4003021
:103120001C4948610846406900F40030009000BF27
:1031300000BF4FF4C0500190022002900020039085
:10314000032004900E20059001A94FF09040FFF756
:1031500067F900BF0F48C06940F400000D49C8611D
:103160000846C06900F40000009000BF00BF0A4894
:10317000006840F0200008490860002211464B20FA
:10318000FFF7ECFA4B20FFF7DBFA06B010BD0000AA
:10319000005C0040001002400000014070B5044691
:1031A0000125A068022801D0FDF7BCFD2946D4F80E
:1031B000E80204F0F0FDD4F8E80204F0ADFD70BDC3
:1031C00010B50446D4F8E80204F0CFFD10BD10B5E8
:1031D0000446D4F8E80204F0D2FD10BD10B5044650
:1031E00094F8A80201280BD0012084F8A80284F8E2
:1031F0002410206805F0B9FE002084F8A80210BD54
:10320000022010BD10B5044604F52C71D4F8E80274
:1032100004F0D7FD10BD10B5044694F8A8020128AB
:1032200010D0012084F8A802206805F064FE012176
:103230002046FFF709FB206805F0D0FA002084F84B
:10324000A80210BD022010BD10B50446D4F8E80253
:1032500004F008FEA06928B10348006840F00600A9
:103260000149086010BD000010ED00E02DE9F84FA5
:103270000446002620689E4D10F4803F70D0E86917
:1032800010F0805F08D1E86940F08050E861E8699B
:1032900000F0805000900126964F386810F4807F2F
:1032A00017D1386840F480703860FFF7D5F9804650
:1032B000386810F4807F0CD1FFF7CEF9A0EB08003E
:1032C000642802D90320BDE8F88F386810F4807FA5
:1032D000F2D0286A00F44070002878D0A18801F468
:1032E0004071814273D0286A20F440704FF48031DD
:1032F00091FAA1F2B2FA82F2920002F1844202F54E
:1033000084024FF00109C2F8009491FAA1F1002261
:10331000B1FA81F1890001F1844101F58401C1F81C
:103320000024286210F0010F51D0FFF795F90746ED
:103330004FF0020898FAA8F0B0FA80F040F0400090
:10334000B9EB501F01D128680CE098FAA8F0B0FA48
:1033500080F040F04000B8EB501F02D1286A01E035
:1033600041E0686A98FAA8F1B1FA81F101F01F0111
:1033700009FA01F108422AD141F2883AFFF76CF9C3
:10338000C01B504502D90320BDE8F88F98FAA8F079
:10339000B0FA80F040F04000B9EB501F01D128682E
:1033A0000BE098FAA8F0B0FA80F040F04000B8EBDB
:1033B000501F01D1286A00E0686A98FAA8F1B1FAB2
:1033C00081F101F01F0109FA01F10842D6D0286A03
:1033D000616820F4407008432862012E03D1E86937
:1033E00020F08050E861207810F0010F05D0286BA4
:1033F000A16820F0030008432863207810F0020F32
:1034000005D0286BE16820F4403008432863207819
:1034100010F0040F05D0286B216920F440200843E8
:103420002863207810F0200F05D0286BE16920F088
:10343000100008432863206810F4003F05D0686836
:10344000A16B20F4800008436860207810F0400FE2
:1034500005D0286B216A20F02000084328632078DB
:1034600010F0080F05D0286B616920F44010084364
:103470002863207810F0100F05D0286BA16920F484
:10348000400008432863208810F4007F05D0686856
:10349000E16A20F4000008436860207810F0800F93
:1034A00005D0E86A616A20F4F8700843E862208871
:1034B00010F4807F05D0E86AA16A20F478500843B0
:1034C000E862208810F4805F05D0286B216B20F41F
:1034D000807008432863208810F4005F05D0286BB3
:1034E000616B20F40070084328630020BDE8F88F6A
:1034F00000100240007000402DE9F04704460D46E0
:10350000002C17D0DFF8B481D8F8000000F00700D5
:10351000A84212D2D8F8000020F007002843C8F8CB
:103520000000D8F8000000F00700A84205D00120F4
:10353000BDE8F0870120BDE8F0872078604E10F0EC
:10354000020F05D07068A16820F0F0000843706099
:10355000207810F0010F6FD06068012201280CD094
:10356000022823D0022393FAA3F1B1FA81F141F0AA
:103570002001490933D0316832E04FF4003393FA27
:10358000A3F1B1FA81F141F02001490901D031687C
:1035900000E0716A93FAA3F3B3FA83F303F01F0315
:1035A0009A40114228D10120BDE8F0874FF0007306
:1035B00093FAA3F1B1FA81F141F02001490901D058
:1035C000316800E0716A93FAA3F3B3FA83F303F06E
:1035D0001F039A4011420FD10120BDE8F087716AA4
:1035E00093FAA3F3B3FA83F303F01F039A40114253
:1035F00002D10120BDE8F087716821F00301084382
:103600007060FFF729F807467068616800F00C00E9
:10361000B0EB810F10D041F28839FFF71DF8C01BC5
:10362000484502D90320BDE8F0877068616800F062
:103630000C00B0EB810FF0D1D8F8000000F00700CB
:10364000A8420FD9D8F8000020F007002843C8F896
:103650000000D8F8000000F00700A84202D00120C6
:10366000BDE8F087207810F0040F05D07068E1689D
:1036700020F4E06008437060207810F0080F06D056
:103680007068216920F4605040EAC100706000F069
:1036900051F87168F02292FAA2F201F0F001B2FA48
:1036A00082F2D140074A515CC84007490860074888
:1036B0000068FFF703F80020BDE8F0870020024013
:1036C00000100240A0E10008B00000201402002019
:1036D0000148006870470000B000002000B5FFF707
:1036E000F7FF074949684FF4E06292FAA2F201F449
:1036F000E061B2FA82F2D140024A515CC84000BD9A
:1037000000100240B0E1000800B5FFF7E1FF0749F3
:1037100049684FF4605292FAA2F201F46051B2FA91
:1037200082F2D140024A515CC84000BD0010024004
:10373000B0E1000810B5184B5968184801F00C02A8
:10374000042A24D0082A22D14FF4701C9CFAACFC25
:1037500001F47012BCFA8CFC22FA0CF2DFF840C0C3
:103760001CF80240DA6A0F2393FAA3F302F00F0267
:10377000B3FA83F3DA400CF110039A5C11F4803F42
:1037800006D000231946FCF71BFDA0FB040110BD69
:103790000448A4FB000110BD0010024000127A0092
:1037A000E4E1000800093D002DE9F84F0446002C33
:1037B00012D02078FA4D10F0010F4FF001067DD0A5
:1037C0006868770400F00C0004280CD0686800F0EA
:1037D0000C00082803D021E00120BDE8F88F6868BC
:1037E00010F4803F1AD097FAA7F0B0FA80F040F0BA
:1037F0002000400901D0286800E0686A97FAA7F124
:10380000B1FA81F101F01F0106FA01F1084255D029
:103810006068002852D10120BDE8F88F6068B0F5DB
:10382000803F20D020B3B0F5A02F2AD0286820F404
:1038300080302860286820F480202860E86AA16829
:1038400020F00F000843E8626068C0B3FEF704FF91
:10385000804697FAA7F0B0FA80F040F020004009C7
:1038600018D0286817E0286840F480302860E5E721
:10387000286820F480302860286820F480202860A0
:10388000DCE7286840F480202860286840F4803015
:103890002860D3E7686A97FAA7F1B1FA81F101F0DD
:1038A0001F0106FA01F1084256D1FEF7D5FEA0EB42
:1038B0000800642804D90320BDE8F88F4CE015E027
:1038C00097FAA7F0B0FA80F040F02000400901D04C
:1038D000286800E0686A97FAA7F1B1FA81F101F06F
:1038E0001F0106FA01F10842DFD035E0FEF7B4FE11
:1038F000804697FAA7F0B0FA80F040F02000400927
:1039000001D0286800E0686A97FAA7F1B1FA81F15E
:1039100001F01F0106FA01F108421DD0FEF79CFEDE
:10392000A0EB0800642802D90320BDE8F88F97FABD
:10393000A7F0B0FA80F040F02000400901D02868DC
:1039400000E0686A97FAA7F1B1FA81F101F01F016E
:1039500006FA01F10842E1D120784FF0000910F099
:10396000020F4FF002074ED068684FF0F80A10F0CF
:103970000C0F21D0686800F00C00082803D168689B
:1039800010F4803F18D0206988B396FAA6F0B0FAF8
:1039900080F0800000F1844000F584000660FEF7AE
:1039A0005BFE804697FAA7F0B0FA80F040F0200066
:1039B000400929D0286828E097FAA7F0B0FA80F0EB
:1039C00040F02000400901D0286800E0686A97FABA
:1039D000A7F1B1FA81F101F01F0106FA01F10842E5
:1039E00006D02069012803D00120BDE8F88F40E00F
:1039F00028689AFAAAF26169B2FA82F220F0F80015
:103A000091400843286075E0686A97FAA7F1B1FA17
:103A100081F101F01F0106FA01F108421DD1FEF704
:103A20001BFEA0EB0800022802D90320BDE8F88F96
:103A300097FAA7F0B0FA80F040F02000400901D0DA
:103A4000286800E0686A97FAA7F1B1FA81F101F0FD
:103A50001F0106FA01F10842E1D028689AFAAAF299
:103A600020F0F8016069B2FA82F2904008432860C1
:103A700040E096FAA6F0B0FA80F0800000F18440B1
:103A800000F58400C0F80090FEF7E6FD804697FA46
:103A9000A7F0B0FA80F040F02000400901D028687B
:103AA00000E0686A97FAA7F1B1FA81F101F01F010D
:103AB00006FA01F108421DD0FEF7CEFDA0EB08008A
:103AC000022802D90320BDE8F88F97FAA7F0B0FAD0
:103AD00080F040F02000400901D0286800E0686ACA
:103AE00097FAA7F1B1FA81F101F01F0106FA01F18D
:103AF0000842E1D1207810F0080F5ED0A069B8B379
:103B000096FAA6F0B0FA80F0800000F1844000F54B
:103B10008400C0F88064FEF79FFD804697FAA7F006
:103B2000B0FA80F040F06000B6EB501F01D1286879
:103B30000BE097FAA7F0B0FA80F040F06000B7EB26
:103B4000501F01D1286A00E0686A97FAA7F1B1FA1C
:103B500081F101F01F0106FA01F108422DD1FEF7B3
:103B60007BFDA0EB0800022803D90320BDE8F88FF5
:103B700024E097FAA7F0B0FA80F040F06000B6EBCE
:103B8000501F01D128680EE097FAA7F0B0FA80F034
:103B900040F06000B7EB501F04D1286A03E000003A
:103BA00000100240686A97FAA7F1B1FA81F101F0BA
:103BB0001F0106FA01F10842D1D058E096FAA6F0AA
:103BC000B0FA80F0800000F1844000F58400C0F875
:103BD0008094FEF741FD804697FAA7F0B0FA80F096
:103BE00040F06000B6EB501F01D128680BE097FA57
:103BF000A7F0B0FA80F040F06000B7EB501F01D1A1
:103C0000286A00E0686A97FAA7F1B1FA81F101F039
:103C10001F0106FA01F1084229D0FEF71DFDA0EBB5
:103C20000800022802D90320BDE8F88F97FAA7F010
:103C3000B0FA80F040F06000B6EB501F01D1286868
:103C40000BE097FAA7F0B0FA80F040F06000B7EB15
:103C5000501F01D1286A00E0686A97FAA7F1B1FA0B
:103C600081F101F01F0106FA01F10842D5D1207857
:103C700010F0040F74D04FF00008E86910F0805F76
:103C800009D1E86940F08050E861E86900F08050AF
:103C900000904FF00108DFF8C0B3DBF8000010F42B
:103CA000807F1BD1DBF8000040F48070CBF800006F
:103CB000FEF7D2FC8246DBF8000010F4807F0DD1C5
:103CC000FEF7CAFCA0EB0A00642802D90320BDE875
:103CD000F88FDBF8000010F4807FF1D0E068012855
:103CE0001CD000B3052827D0286A20F001002862E4
:103CF000286A20F004002862E06841F2883B80B323
:103D0000FEF7AAFC824697FAA7F0B0FA80F040F0DE
:103D10004000B6EB501F18D1286824E0286A40F014
:103D200001002862E8E7286A20F001002862286A7A
:103D300020F004002862DFE7286A40F004002862CF
:103D4000286A40F001002862D6E797FAA7F0B0FA97
:103D500080F040F04000B7EB501F03D1286A02E02A
:103D60008BE035E0686A97FAA7F1B1FA81F101F0CA
:103D70001F0106FA01F1084278D1FEF76DFCA0EBB5
:103D80000A00584502D90320BDE8F88F97FAA7F03A
:103D9000B0FA80F040F04000B6EB501F01D1286827
:103DA0000BE097FAA7F0B0FA80F040F04000B7EBD4
:103DB000501F01D1286A00E0686A97FAA7F1B1FAAA
:103DC00081F101F01F0106FA01F10842D5D04DE062
:103DD000FEF742FC824697FAA7F0B0FA80F040F076
:103DE0004000B6EB501F01D128680BE097FAA7F00E
:103DF000B0FA80F040F04000B7EB501F01D1286AC4
:103E000000E0686A97FAA7F1B1FA81F101F01F01A9
:103E100006FA01F1084229D0FEF71EFCA0EB0A00C9
:103E2000584502D90320BDE8F88F97FAA7F0B0FAF9
:103E300080F040F04000B6EB501F01D128680BE045
:103E400097FAA7F0B0FA80F040F04000B7EB501FAF
:103E500001D1286A00E0686A97FAA7F1B1FA81F106
:103E600001F01F0106FA01F10842D5D1B8F1010FA6
:103E700003D1E86920F08050E861E069D0B3696857
:103E800001F00C0108297DD04FF0807A4FF00078C6
:103E9000022817D09AFAAAF0B0FA80F0800000F158
:103EA000844000F58400C0F80090FEF7D5FB04467E
:103EB00098FAA8F0B0FA80F040F02000400975D0E0
:103EC00028688BE09AFAAAF0B0FA80F0800000F13E
:103ED000844000F58400C0F80090FEF7BDFB074663
:103EE00098FAA8F0B0FA80F040F02000400902D023
:103EF000286801E099E0686A98FAA8F1B1FA81F1BE
:103F000001F01F0106FA01F108421CD0FEF7A4FBE4
:103F1000C01B022802D90320BDE8F88F98FAA8F048
:103F2000B0FA80F040F02000400901D0286800E09D
:103F3000686A98FAA8F1B1FA81F101F01F0106FA56
:103F400001F10842E2D1216A606A0843696821F4FC
:103F50007411084368609AFAAAF0B0FA80F0800001
:103F600000F1844000F584000660FEF775FB04460E
:103F700098FAA8F0B0FA80F040F02000400902D092
:103F8000286801E052E0686A98FAA8F1B1FA81F174
:103F900001F01F0106FA01F108425AD1FEF75CFB5D
:103FA000001B022803D90320BDE8F88F15E098FA1A
:103FB000A8F0B0FA80F040F02000400901D0296854
:103FC00000E0696A98FAA8F0B0FA80F000F01F00EB
:103FD00006FA00F00142E1D03BE0686A98FAA8F1E5
:103FE000B1FA81F101F01F0106FA01F1084230D067
:103FF000FEF732FB001B022802D90320BDE8F88F30
:1040000098FAA8F0B0FA80F040F02000400901D002
:10401000296800E0696A98FAA8F0B0FA80F000F028
:104020001F0006FA00F00142E2D112E001280DD093
:104030006868226A00F48031914204D1616A00F418
:104040007010884205D00120BDE8F88F0120BDE83E
:10405000F88F0020BDE8F88F00700040401EB0F1DE
:10406000807F01D3012070474FF0E0214861044A6E
:10407000F020107000208861072008610020704740
:1040800023ED00E07047704770470000F0B490F8EF
:104090003C20012A3CD0012480F83C40022280F8D8
:1040A0003D2003685A68D3F808C01B4D1B4EAB4235
:1040B00001D0B34203D122F470024F683A4322F098
:1040C00070020F683A435A600268AA4213D0B2F1F4
:1040D000804F10D0A2F18043B3F580630BD0A2F1E2
:1040E0008043B3F5006306D0B24204D0A2F180430E
:1040F000B3F5A03304D12CF0800389681943916093
:1041000080F83D40002180F83C10F0BC0020704752
:10411000F0BC022070470000002C01400034014038
:1041200010B50446002C03D094F83D0010B107E010
:10413000012010BD002084F83C00204600F022F849
:10414000022084F83D00211D206802F07DFA012044
:1041500084F8480084F83E0084F83F0084F840006A
:1041600084F8410084F8420084F8430084F8440055
:1041700084F8450084F8460084F8470084F83D0040
:10418000002010BD38B504460D492068884215D17D
:1041900000BF0C48C06940F010000A49C8610846D9
:1041A000C06900F01000009000BF00BF002211465F
:1041B0003620FEF7D3FA3620FEF7C2FA38BD0000EB
:1041C000001000400010024090F83D10012901D07D
:1041D00001207047022180F83D100168CA6842F052
:1041E0000102CA600068A0F18041B1F596311CD08F
:1041F000B0F1804F19D0A0F18041B1F5806114D0A9
:10420000A0F18041B1F500610FD0A0F18041B1F57E
:104210009A310AD0A0F18041B1F5A03105D00168F2
:1042200041F001010160002070478168054A11409A
:104230000629F8D0B1F5803FF5D0016841F00101C1
:104240000160F0E70700010070B504460D46002C40
:1042500003D094F83D0010B107E0012070BD0020AC
:1042600084F83C00204600F059F8022084F83D0014
:104270002068816821F0070121F4A0318160211DAF
:10428000206802F0E1F9206883688269016AD5F844
:1042900000C04CEA030322F0030222F44072AE692C
:1042A000D5F808C042EA06224CEA020222F00C02CB
:1042B00022F4406222F0F00222F47042EE69D5F856
:1042C0000CC042EA06224CEA0202D5F810C02E6A5F
:1042D0004FEA0C1C4CEA063C4CEA020221F0220197
:1042E00021F08801D5F804C06D6941EA05114CEA56
:1042F000010183602068826120680162012084F8E6
:10430000480084F83E0084F83F0084F8440084F8B4
:10431000450084F83D00002070BD000010B586B057
:104320000446142101A8FBF7A9FF6B4920688842C5
:1043300032D100BF6948806940F4006067498861F4
:104340000846806900F40060009000BF00BF00BF15
:104350000846406940F4003048610846406900F46E
:104360000030009000BF00BF4FF440700190022069
:1043700002900390002004900620059001A94FF0C0
:104380009040FEF74DF8002211461920FEF7E6F99D
:104390001920FEF7D5F99DE051492068884230D1B7
:1043A00000BF4E48C06940F002004C49C861084651
:1043B000C06900F00200009000BF00BF00BF0846C7
:1043C000406940F4802048610846406900F480203C
:1043D000009000BF00BF30200190022002900390A7
:1043E000002004900220059001A93E48FEF718F82D
:1043F000002211461D20FEF7B1F91D20FEF7A0F99D
:1044000068E039492068884230D100BF3348C0692C
:1044100040F004003149C8610846C06900F004005A
:10442000009000BF00BF00BF0846406940F48020F4
:1044300048610846406900F48020009000BF00BF3A
:10444000C0200190022002900390002004900220DE
:10445000059001A92348FDF7E3FF002211461E2025
:10446000FEF77CF91E20FEF76BF933E01F49206848
:1044700088422FD100BF1948806940F40050174985
:1044800088610846806900F40050009000BF00BFBA
:1044900000BF0846406940F4002048610846406972
:1044A00000F40020009000BF00BFC0200190022057
:1044B00002900390002004900420059001A90C486C
:1044C000FDF7AEFF002211462C20FEF747F92C2005
:1044D000FEF736F906B010BD002C01400010024076
:1044E000000400400004004800080040003401407F
:1044F0000008004830B5044694F83E0094F83F2088
:1045000094F8443094F845C00225002904D00429C9
:104510000DD001281ED116E0012801D1012B01D0B8
:10452000012030BD84F83E5084F844501CE0012A3C
:1045300002D1BCF1010F01D0012030BD84F83F5001
:1045400084F8455010E0012A04D1012B02D1BCF1BE
:10455000010F01D0012030BD84F83E5084F83F5057
:1045600084F8445084F8455091B1042916D00122B2
:104570000021206802F0C0F801220421206802F026
:10458000BBF82068016841F001010160002030BDE6
:1045900001220021206802F0AFF8F2E70122042195
:1045A000206802F0A9F8ECE7704770B5044620686F
:1045B00001694FF0000511F0020F17D0C16811F02A
:1045C000020F13D0E91E0161012020772068806965
:1045D00010F0030F03D02046FFF7E6FF05E020466A
:1045E00000F0D8F8204600F0B9F925772068016975
:1045F00011F0040F18D0C16811F0040F14D06FF03F
:1046000004010161022020772068806910F4407F56
:1046100003D02046FFF7C8FF05E0204600F0BAF8B7
:10462000204600F09BF925772068016911F0080FFA
:1046300018D0C16811F0080F14D06FF008010161A3
:10464000042020772068C06910F0030F03D02046B3
:10465000FFF7AAFF05E0204600F09CF8204600F096
:104660007DF925772068016911F0100F18D0C16815
:1046700011F0100F14D06FF01001016108202077A5
:104680002068C06910F4407F03D02046FFF78CFFFC
:1046900005E0204600F07EF8204600F05FF925771F
:1046A0002068016911F0010F09D0C16811F0010FF4
:1046B00005D06FF001010161204600F0DDF92068AE
:1046C000016911F0800F09D0C16811F0800F05D089
:1046D0006FF0800101612046FFF7D5FC2068016979
:1046E00011F4807F09D0C16811F0800F05D06FF4FC
:1046F000807101612046FFF7C5FC2068016911F057
:10470000400F09D0C16811F0400F05D06FF0400193
:104710000161204600F01AFA2068016911F0200FAB
:104720000BD0C16811F0200F07D06FF0200101619C
:104730002046BDE87040FFF7A7BC70BD10B586B03D
:104740000446142101A8FBF799FD2068B0F1804FC1
:104750001BD100BF0E48406940F400300C4948614D
:104760000846406900F40030009000BF00BF0F20F1
:1047700001900220029003900020049001200590F7
:1047800001A94FF09040FDF74BFE06B010BD0000B0
:1047900000100240704770B504460D46002694F89C
:1047A0003C0001280BD0012084F83C000C2A4FD09B
:1047B00007DC82B1042A22D0082A06D134E0022084
:1047C00070BD102A59D0142A6BD00126002084F81D
:1047D0003C00304670BD2946206801F09DFF2068EE
:1047E000816941F0080181612068816921F004013B
:1047F0008161206881692A6911438161E6E7294660
:10480000206801F0DDFF2068816941F40061816169
:104810002068816921F480618161206881692A6949
:1048200041EA02218161D1E72946206802F016F8A9
:104830002068C16941F00801C1612068C16921F0A7
:104840000401C1612068C1692A691143C161BDE7E2
:104850002946206802F050F82068C16941F40061DF
:10486000C1612068C16921F48061C1612068C169AA
:104870002A6941EA0221C161A8E72946206802F0BD
:1048800078F82068416D41F0080141652068416D6C
:1048900021F0040141652068416D2A691143416599
:1048A00094E72946206802F09EF82068416D41F4A3
:1048B000006141652068416D21F480614165206897
:1048C000416D2A6941EA022141657FE710B504463E
:1048D000002C03D094F83D0010B107E0012010BD7A
:1048E000002084F83C00204600F022F8022084F8E2
:1048F0003D00211D206801F0A7FE012084F848003A
:1049000084F83E0084F83F0084F8400084F84100B9
:1049100084F8420084F8430084F8440084F8450099
:1049200084F8460084F8470084F83D00002010BD5C
:1049300008B50168B1F1804F0DD100BF0649C969C2
:1049400041F00101044AD1611146C96901F0010138
:10495000009100BF00BF08BD00100240704700007A
:1049600010B5044600290DD004290ED008290FD017
:104970000C2910D0102911D094F84300012810D030
:10498000012010BD94F83E00F8E794F83F00F5E7E9
:1049900094F84000F2E794F84100EFE794F8420001
:1049A000ECE70220F1B304294BD008294CD00C29A4
:1049B0004DD010294ED084F843000122206801F028
:1049C0009BFE29492068294A294B88420DD09042F4
:1049D0000BD0984209D0A0F1804CBCF5A23C04D089
:1049E000A0F1804CBCF5A43C05D1D0F844C04CF4F7
:1049F000004CC0F844C02068884210D0B0F1804F0D
:104A00000DD0A0F18041B1F5806108D0A0F18041C6
:104A1000B1F5006103D0904201D098421DD1816868
:104A2000144A00E00AE0114006291AD0B1F5803F8F
:104A300017D0016841F00101016012E084F83E00E6
:104A4000BBE784F83F00B8E784F84000B5E784F896
:104A50004100B2E784F84200AFE7016841F001018C
:104A60000160002010BD0000002C01400034014016
:104A700000400140070001002C4A0168914211D119
:104A80000168096801F01001102905D12849096859
:104A9000491E274A116048E025490968491C244AF3
:104AA000116042E0234A0168914211D1016809680E
:104AB00001F01001102905D11F490968491E1E4A3D
:104AC000116032E01C490968491C1B4A11602CE046
:104AD0001A4A0168914211D10168096801F0100178
:104AE000102905D116490968491E154A11601CE0B4
:104AF00013490968491C124A116016E0114A0168FD
:104B0000914211D10168096801F01001102905D105
:104B10000D490968491E0C4A116006E00A490968F6
:104B2000491C094A116000E000BF704700080040BE
:104B3000DC000020002C0140E000002000040040C8
:104B4000E400002000340140E80000207047704776
:104B5000704770B50446206850E8001F21F490713A
:104B600040E80012002AF6D12068083050E8001F03
:104B700021F0010140E80012002AF5D1206E012841
:104B800008D1206850E8001F21F0100140E8001211
:104B9000002AF6D1206880684FF0000510F0400F21
:104BA00015D02068083050E8001F21F0400140E88F
:104BB0000012002AF5D1606F48B14563606FFDF7C0
:104BC000F7FA20B1606FFDF73CFB20280FD0A4F866
:104BD0005A5021680F2008622068816941F008015D
:104BE00081612020C4F880002566002070BD10205F
:104BF000C4F88400032070BD70B50446206850E8F6
:104C0000001F21F0C00140E80012002AF6D1206800
:104C10008068154610F0800F15D02068083050E8E5
:104C2000001F21F0800140E80012002AF5D1206F1A
:104C300048B14563206FFDF7BBFA20B1206FFDF747
:104C400000FB202805D0A4F852502020E067002067
:104C500070BD1020C4F88400032070BD70B50446F8
:104C6000E06FD4F88060216889684FF0100511F07A
:104C7000800F18D0212816D12068083050E8001F76
:104C800021F0800140E80012002AF5D1206F38B1F0
:104C9000FDF78EFA20B1206FFDF7D3FA20280AD055
:104CA000204602F086F82068806810F0400F1DD082
:104CB000222E04D01AE0C4F88450032070BD20686E
:104CC000083050E8001F21F0400140E80012002A9F
:104CD000F5D1606F38B1FDF76BFA20B1606FFDF769
:104CE000B0FA202804D0204602F02CF8002070BD35
:104CF000C4F88450032070BD034A0168914202D178
:104D00000121024A1170704700380140180000204C
:104D10002DE9F04104462268D0691168936840F695
:104D20000F0C00EA0C0CBCF1000F0CD110F0200F9E
:104D300009D011F0200F06D0A16E00297ED02046A8
:104D4000BDE8F041084700250226BCF1000F76D0EF
:104D5000AA4F03F0010C0F405CEA07076FD010F078
:104D6000010F0AD011F4807F07D001271762D4F811
:104D7000842042F00102C4F8842010F0020F0AD00F
:104D800013F0010F07D022681662D4F8842042F095
:104D90000402C4F8842010F0040F0BD013F0010FAC
:104DA00008D0236804221A62D4F8842042F0020258
:104DB000C4F8842010F0080F0DD001F0200252EA50
:104DC0000C0208D0236808221A62D4F8842042F02A
:104DD0000802C4F8842010F4006F0CD011F0806F2A
:104DE00009D023684FF400621A62D4F8842042F09C
:104DF0002002C4F88420D4F88420002A39D010F08E
:104E0000200F06D011F0200F03D0A16E09B120466B
:104E10008847D4F884002168896811F0400F02D1D6
:104E200010F0280F2CD0204601F08CFF20688068FD
:104E300010F0400F1FD02068083001E019E026E094
:104E400050E8001F21F0400140E80012002AF2D192
:104E5000606F58B16A494163606FFDF7CDF9002872
:104E600007D0606F416BBDE8F04108472046FFF76F
:104E700043FFBDE8F0812046FFF73EFFBDE8F0812B
:104E80002046FFF739FFC4F88450BDE8F081D4F81C
:104E900060C0BCF1010F7CD110F0100F79D011F07F
:104EA000100F76D010201062206880684FF0200329
:104EB00010F0400F46D0616F0868406880B200284B
:104EC000E3D0B4F858208242DFD9A4F85A008869A8
:104ED00020282BD0206850E8001F21F4807140E882
:104EE0000012002AF6D12068083050E8001F21F097
:104EF000010140E80012002AF5D12068083050E88E
:104F0000001F21F0400140E80012002AF5D1C4F84A
:104F100080302566206850E8001F21F0100140E82D
:104F20000012002AF6D1606FFDF742F96666B4F808
:104F30005800B4F85A10401A81B22046FFF707FE15
:104F4000BDE8F081B4F85800B4F85A10401A81B2A4
:104F5000B4F85A000028F3D00029F1D0206850E8B6
:104F6000002F22F4907240E8002CBCF1000FF5D124
:104F70002068083050E8002F22F0010240E8002CA1
:104F8000BCF1000FF4D1C4F880302566A566206816
:104F900000E00DE050E8002F22F0100240E800236E
:104FA000002BF4D166662046FFF7D1FDBDE8F08105
:104FB00010F4801F0AD013F4800F07D04FF4801034
:104FC00010622046BDE8F041FFF7C2BD10F0800F2F
:104FD00009D011F0800F06D0E16E0029E6D02046FE
:104FE000BDE8F041084710F0400FDFD011F0400F4E
:104FF000DCD02046BDE8F04101F0CABE200100042B
:10500000EB6B000810B50446002C02D0E06F10B125
:1050100007E0012010BD002084F87800204600F051
:1050200027F82420E0672068016821F00101016071
:10503000204601F0CBFE012818D0606A10B120464E
:1050400001F00CFD2068416821F490414160206826
:10505000816821F02A0181602068016841F0010126
:1050600001602046BDE8104001F064BD012010BD84
:1050700010B586B00446142101A8FBF7FFF89D493E
:105080002068884244D100BF9B48C06940F480102A
:105090009949C8610846C06900F48010009000BFBB
:1050A00000BF00BF0846406940F400204861084640
:1050B000406900F40020009000BF00BF00BF084618
:1050C000406940F4801048610846406900F480104F
:1050D000009000BF00BF88140190022002900020C1
:1050E0000390032004900520059001A98348FDF753
:1050F00097F90420019002200290002003900320E1
:1051000004900520059001A97D48FDF789F9EEE09E
:105110007C492068884264D100BF7748806940F4A8
:105120008040754988610846806900F4804000909D
:1051300000BF00BF00BF0846406940F4002048613E
:105140000846406900F40020009000BF00BF3020F6
:105150000190022002900020039003200490072079
:10516000059001A96548FDF75BF967486749086044
:10517000002048600021654881608021C1600021D5
:10518000016141618161C161FDF7C1F808B1FBF7BF
:10519000C9FD00BF5D486067446200BF5A481438CB
:1051A0005B490860102048600021594881608021D7
:1051B000C1600021016141618161C161FDF7A7F812
:1051C00008B1FBF7AFFD00BF51482067446200BF44
:1051D000002211462520FDF7C1FA2520FDF7B0FA7F
:1051E00085E04C492068884291D100BF4248C0699F
:1051F00040F400304049C8610846C06900F40030FE
:10520000009000BF00BF00BF0846406940F4003076
:1052100048610846406900F40030009000BF00BFBC
:1052200000BF0846406940F4802048610846406954
:1052300000F48020009000BF00BF4FF400400190B8
:105240000220029000200390032004900720059084
:1052500001A94FF09040FDF7E3F8082001900220EB
:10526000029000200390032004900720059001A9DC
:105270002948FDF7D5F8244828302849086010202F
:1052800048600021254881608021C16000210161C2
:1052900041618161C161FDF73AF808B1FBF742FD58
:1052A00000BF1E482067446200BF174814301C49E5
:1052B0000860002048600021194881608021C16099
:1052C0000021016141618161C161FDF720F808B1F0
:1052D000FBF728FD00BF12486067446200BF002250
:1052E00011462620FDF73AFA2620FDF729FA06B0E6
:1052F00010BD0000005000400010024000080048AF
:10530000000C00480038014058000240A81300205B
:10531000EC1300200044004000040048301400203A
:105320007414002030B4D0F88030202B02D030BC70
:105330000220704799B192B10023036603685B684D
:1053400013F4000F08D0036853E800CF4CF0806CD2
:1053500043E800C4002CF6D130BC01F04BBE30BC99
:1053600001207047704770472DE9F84304460E4608
:1053700015461F46E06F202802D00220BDE8F883C2
:105380008EB185B10020C4F884002120E067FDF7CC
:1053900063F98146A4F85050A4F85250A068B0F5C3
:1053A000805F03D004E00120BDE8F883206998B154
:1053B00035460026B4F852004FF02008E0B14B46C5
:1053C000002280212046009701F064FE30B1C4F82D
:1053D0007C800320BDE8F8830025EBE7CDB1216890
:1053E000287808856D1CB4F85200401EA4F85200BD
:1053F000B4F852000028E2D14B460022402120465A
:10540000009701F047FE58B1C4F87C800320BDE846
:10541000F88330882168C0F308000885B61CE2E7ED
:10542000C4F87C800020BDE8F883000010B5044675
:10543000E06F202801D0022010BD002929D0002AC9
:1054400027D0E164A4F85020A4F852200021C4F829
:1054500084102120E067206FE8B1164B8362236F30
:105460001548D862236F15481863206F4163206880
:1054700013462830D4F870C002466046E16CFCF751
:105480006FFF40B11020C4F884002020E0670120A5
:1054900010BD012010BD216840200862206808303E
:1054A00050E8001F41F0800140E80012002AF5D1C9
:1054B000002010BDFB6C00083B6D0008FF6B00086E
:1054C00010B5044608492068884205D10748FFF70F
:1054D000C5FB01200649087006492068884202D1B0
:1054E0000548FFF7BBFB10BD0038014098120020B3
:1054F000190000200044004020130020704700BF26
:10550000FEE730B50B46002100BF16E00A24B4EBDD
:10551000107F05D9302404EB107403F8114005E026
:10552000412404EB10740A3C03F8114000010025EB
:105530004C00641C1D554C1CE1B29142E6DB30BDB1
:1055400000B589B0002006900790089018216846A1
:10555000FAF794FE4FF0A0401C4908600020486014
:1055600000211A4881600161417680F82010C162F3
:10557000012181620021C1600121C161002180F807
:10558000301004214161002101764163FBF78EFE5A
:1055900008B1FBF7C7FB0020069006A90B48FBF7F4
:1055A000DDFB08B1FBF7BEFB052000900120019058
:1055B0000020039002900490059069460348FBF791
:1055C0006FFC08B1FBF7AEFB09B000BD800F0020F7
:1055D00000B589B000200690079008901821684611
:1055E000FAF74CFE1C481D49086000204860002165
:1055F0001A4881600161417680F82010C162012162
:1056000081620021C1600121C161002180F8301058
:1056100004214161002101764163FBF747FE08B197
:10562000FBF780FB0020069006A90C48FBF796FBD1
:1056300008B1FBF777FB0120009001900020039058
:1056400002900490059069460448FBF729FC08B1D4
:10565000FBF768FB09B000BD00040050D00F00202C
:1056600010B50E480E4908600420486000210C481F
:105670008160C1604FF4002101614FF4E00141619C
:105680000021017641768176C17601774177FCF77A
:10569000F6FB08B1FBF746FB10BD000000640040BC
:1056A0002010002008B500BF1648406940F00100F6
:1056B000144948610846406900F00100009000BFAD
:1056C00000BF002211460E20FDF748F80E20FDF71E
:1056D00037F8002211460F20FDF740F80F20FDF7A4
:1056E0002FF8002211461020FDF738F81020FDF7A2
:1056F00027F8002211461120FDF730F81120FDF7A0
:105700001FF808BD0010024000B587B0142102A8A0
:10571000FAF7B4FD00BF6448406940F400206249D4
:1057200048610846406900F40020019000BF00BFB6
:1057300000BF0846406940F480004861084640695F
:1057400000F48000019000BF00BF00BF0846406920
:1057500040F4003048610846406900F40030019090
:1057600000BF00BF00BF0846406940F48020486188
:105770000846406900F48020019000BF00BF00BFD0
:105780000846406940F4801048610846406900F4CA
:105790008010019000BF00BF002248F60F714348FF
:1057A000FCF753FF00224FF49C614FF09040FCF750
:1057B0004CFF00224FF478413D48FCF746FF4FF480
:1057C000C0400290002003900120049002A93748B5
:1057D000FCF726FE48F20F300290012003900220D1
:1057E00004900020059002A93048FCF719FE102013
:1057F0000290002003900220049002A94FF09040F4
:10580000FCF70EFEE020029001200390049000209F
:10581000059002A94FF09040FCF702FE0420029090
:10582000002003900120049002A92148FCF7F8FD14
:105830004FF4806002904FF44410039002200490D3
:1058400002A91B48FCF7ECFD4FF4784002900120C0
:105850000390022004900020059002A91448FCF750
:10586000DFFD4FF48060029001200390049003203C
:10587000059002A94FF09040FCF7D2FD4FF4406034
:1058800002900120039000200490059002A907488F
:10589000FCF7C6FD002211462820FCF75FFF2820F8
:1058A000FCF74EFF07B000BD0010024000080048A2
:1058B0000004004800B58DB0242104A8FAF7DEFCEE
:1058C00000200190029003901848194908600020B8
:1058D00048600021164881604CF25031C1600021BF
:1058E0000161416181610320049000200590012045
:1058F0000690002007900890099001200A9000204F
:105900000B900C9004A90A48FEF79EFC08B1FBF727
:1059100009FA002001900290039001A90448FEF7C3
:10592000B5FB08B1FBF7FEF90DB000BD002C01403E
:105930004810002000B58BB00020089009900A9014
:105940001C2101A8FAF79AFC4FF080402349086017
:105950004720486000212148816040F2E731C16062
:10596000002101618161FEF7B1FF08B1FBF7DAF9AF
:10597000002008900A9008A91848FEF787FB08B194
:10598000FBF7D0F960200190002002900390059071
:10599000002201A91148FEF7FEFE08B1FBF7C2F98B
:1059A000042201A90D48FEF7F6FE08B1FBF7BAF98B
:1059B000082201A90948FEF7EEFE08B1FBF7B2F98B
:1059C0000C2201A90548FEF7E6FE08B1FBF7AAF98B
:1059D0000248FEF7B3FE0BB000BD0000941000209B
:1059E00000B58DB0242104A8FAF748FC00200190EE
:1059F000029003901A481B4908600020486000216B
:105A0000184881604CF25031C1604FF4007101615F
:105A10000021816103200490002005900120069060
:105A2000002007900F2008900020099001200A9084
:105A300000200B900F200C9004A90A48FEF704FCEC
:105A400008B1FBF76FF900200190039001A9054808
:105A5000FEF71CFB08B1FBF765F90DB000BD0000B7
:105A600000040040E010002000B58DB0242104A8FF
:105A7000FAF704FC00200190029003901A481B4999
:105A80000860002048600021184881604CF25031C5
:105A9000C1604FF400710161002181610320049015
:105AA0000020059001200690002007900F2008900C
:105AB0000020099001200A9000200B900F200C90EC
:105AC00004A90A48FEF7C0FB08B1FBF72BF9002038
:105AD0000190039001A90548FEF7D8FA08B1FBF739
